{
  "address": "0xe7f1725E7734CE288F8367e1Bb143E90bb3F0512",
  "abi": [
    {
      "inputs": [
        {
          "internalType": "address",
          "name": "_priceFeedAddress",
          "type": "address"
        }
      ],
      "stateMutability": "nonpayable",
      "type": "constructor"
    },
    {
      "inputs": [],
      "name": "FundMe__NotOwner",
      "type": "error"
    },
    {
      "stateMutability": "payable",
      "type": "fallback"
    },
    {
      "inputs": [],
      "name": "MINIMUM_USD",
      "outputs": [
        {
          "internalType": "uint256",
          "name": "",
          "type": "uint256"
        }
      ],
      "stateMutability": "view",
      "type": "function"
    },
    {
      "inputs": [],
      "name": "fund",
      "outputs": [],
      "stateMutability": "payable",
      "type": "function"
    },
    {
      "inputs": [
        {
          "internalType": "address",
          "name": "_funderAddress",
          "type": "address"
        }
      ],
      "name": "getAddressToAmountFunded",
      "outputs": [
        {
          "internalType": "uint256",
          "name": "",
          "type": "uint256"
        }
      ],
      "stateMutability": "view",
      "type": "function"
    },
    {
      "inputs": [],
      "name": "getAggregatorPriceFeedAddress",
      "outputs": [
        {
          "internalType": "contract AggregatorV3Interface",
          "name": "",
          "type": "address"
        }
      ],
      "stateMutability": "view",
      "type": "function"
    },
    {
      "inputs": [
        {
          "internalType": "uint256",
          "name": "_index",
          "type": "uint256"
        }
      ],
      "name": "getFunder",
      "outputs": [
        {
          "internalType": "address",
          "name": "",
          "type": "address"
        }
      ],
      "stateMutability": "view",
      "type": "function"
    },
    {
      "inputs": [],
      "name": "getOwner",
      "outputs": [
        {
          "internalType": "address",
          "name": "",
          "type": "address"
        }
      ],
      "stateMutability": "view",
      "type": "function"
    },
    {
      "inputs": [],
      "name": "getVersion",
      "outputs": [
        {
          "internalType": "uint256",
          "name": "",
          "type": "uint256"
        }
      ],
      "stateMutability": "view",
      "type": "function"
    },
    {
      "inputs": [],
      "name": "get_minimum_fund",
      "outputs": [
        {
          "internalType": "uint256",
          "name": "",
          "type": "uint256"
        }
      ],
      "stateMutability": "pure",
      "type": "function"
    },
    {
      "inputs": [],
      "name": "withdraw",
      "outputs": [],
      "stateMutability": "payable",
      "type": "function"
    },
    {
      "stateMutability": "payable",
      "type": "receive"
    }
  ],
  "transactionHash": "0x6172a1a650a3a339a14a1f901e5ca3f6ebc3c337c8b12e1237c1f4129de48b10",
  "args": [
    "0x5FbDB2315678afecb367f032d93F642f64180aa3"
  ],
  "numDeployments": 1,
  "solcInputHash": "84148a9c12dcf47a226195c485d3912e",
  "bytecode": "0x60a06040523480156200001157600080fd5b506040516200152f3803806200152f833981810160405281019062000037919062000237565b3373ffffffffffffffffffffffffffffffffffffffff1660808173ffffffffffffffffffffffffffffffffffffffff1660601b8152505080600260006101000a81548173ffffffffffffffffffffffffffffffffffffffff021916908373ffffffffffffffffffffffffffffffffffffffff160217905550620000fa6040518060400160405280601781526020017f636f6e736f6c652e6c6f67282920646562756767696e670000000000000000008152506200010160201b6200078b1760201c565b5062000331565b620001a1816040516024016200011891906200030d565b6040516020818303038152906040527f41304fac000000000000000000000000000000000000000000000000000000007bffffffffffffffffffffffffffffffffffffffffffffffffffffffff19166020820180517bffffffffffffffffffffffffffffffffffffffffffffffffffffffff8381831617835250505050620001a460201b60201c565b50565b60008151905060006a636f6e736f6c652e6c6f679050602083016000808483855afa5050505050565b600080fd5b600073ffffffffffffffffffffffffffffffffffffffff82169050919050565b6000620001ff82620001d2565b9050919050565b6200021181620001f2565b81146200021d57600080fd5b50565b600081519050620002318162000206565b92915050565b60006020828403121562000250576200024f620001cd565b5b6000620002608482850162000220565b91505092915050565b600081519050919050565b600082825260208201905092915050565b60005b83811015620002a557808201518184015260208101905062000288565b83811115620002b5576000848401525b50505050565b6000601f19601f8301169050919050565b6000620002d98262000269565b620002e5818562000274565b9350620002f781856020860162000285565b6200030281620002bb565b840191505092915050565b60006020820190508181036000830152620003298184620002cc565b905092915050565b60805160601c6111d8620003576000396000818161043101526106f501526111d86000f3fe60806040526004361061008a5760003560e01c806382595065116100595780638259506514610140578063893d20e81461016b5780639e02dcfc14610196578063b60d4288146101c1578063d7b4750c146101cb57610099565b80630343fb25146100a35780630d8e6e2c146100e05780633ccfd60b1461010b5780636b69a5921461011557610099565b3661009957610097610208565b005b6100a1610208565b005b3480156100af57600080fd5b506100ca60048036038101906100c59190610a39565b610340565b6040516100d79190610a7f565b60405180910390f35b3480156100ec57600080fd5b506100f5610388565b6040516101029190610a7f565b60405180910390f35b61011361042f565b005b34801561012157600080fd5b5061012a6106d3565b6040516101379190610a7f565b60405180910390f35b34801561014c57600080fd5b506101556106e0565b6040516101629190610a7f565b60405180910390f35b34801561017757600080fd5b506101806106f1565b60405161018d9190610aa9565b60405180910390f35b3480156101a257600080fd5b506101ab610719565b6040516101b89190610b23565b60405180910390f35b6101c9610208565b005b3480156101d757600080fd5b506101f260048036038101906101ed9190610b6a565b610743565b6040516101ff9190610aa9565b60405180910390f35b6102106106e0565b610245600260009054906101000a900473ffffffffffffffffffffffffffffffffffffffff163461082490919063ffffffff16565b1015610286576040517f08c379a000000000000000000000000000000000000000000000000000000000815260040161027d90610bf4565b60405180910390fd5b346000803373ffffffffffffffffffffffffffffffffffffffff1673ffffffffffffffffffffffffffffffffffffffff16815260200190815260200160002060008282546102d49190610c43565b925050819055506001339080600181540180825580915050600190039060005260206000200160009091909190916101000a81548173ffffffffffffffffffffffffffffffffffffffff021916908373ffffffffffffffffffffffffffffffffffffffff160217905550565b60008060008373ffffffffffffffffffffffffffffffffffffffff1673ffffffffffffffffffffffffffffffffffffffff168152602001908152602001600020549050919050565b6000600260009054906101000a900473ffffffffffffffffffffffffffffffffffffffff1673ffffffffffffffffffffffffffffffffffffffff166354fd4d506040518163ffffffff1660e01b815260040160206040518083038186803b1580156103f257600080fd5b505afa158015610406573d6000803e3d6000fd5b505050506040513d601f19601f8201168201806040525081019061042a9190610cae565b905090565b7f000000000000000000000000000000000000000000000000000000000000000073ffffffffffffffffffffffffffffffffffffffff163373ffffffffffffffffffffffffffffffffffffffff16146104b4576040517f579610db00000000000000000000000000000000000000000000000000000000815260040160405180910390fd5b6000600180548060200260200160405190810160405280929190818152602001828054801561053857602002820191906000526020600020905b8160009054906101000a900473ffffffffffffffffffffffffffffffffffffffff1673ffffffffffffffffffffffffffffffffffffffff16815260200190600101908083116104ee575b5050505050905060005b81518110156105c25760008282815181106105605761055f610cdb565b5b6020026020010151905060008060008373ffffffffffffffffffffffffffffffffffffffff1673ffffffffffffffffffffffffffffffffffffffff168152602001908152602001600020819055505080806105ba90610d0a565b915050610542565b50600067ffffffffffffffff8111156105de576105dd610d53565b5b60405190808252806020026020018201604052801561060c5781602001602082028036833780820191505090505b506001908051906020019061062292919061092f565b5060003373ffffffffffffffffffffffffffffffffffffffff164760405161064990610db3565b60006040518083038185875af1925050503d8060008114610686576040519150601f19603f3d011682016040523d82523d6000602084013e61068b565b606091505b50509050806106cf576040517f08c379a00000000000000000000000000000000000000000000000000000000081526004016106c690610e14565b60405180910390fd5b5050565b6802b5e3af16b188000081565b60006802b5e3af16b1880000905090565b60007f0000000000000000000000000000000000000000000000000000000000000000905090565b6000600260009054906101000a900473ffffffffffffffffffffffffffffffffffffffff16905090565b60006001828154811061075957610758610cdb565b5b9060005260206000200160009054906101000a900473ffffffffffffffffffffffffffffffffffffffff169050919050565b6108218160405160240161079f9190610ebc565b6040516020818303038152906040527f41304fac000000000000000000000000000000000000000000000000000000007bffffffffffffffffffffffffffffffffffffffffffffffffffffffff19166020820180517bffffffffffffffffffffffffffffffffffffffffffffffffffffffff8381831617835250505050610860565b50565b60008061083083610889565b90506000670de0b6b3a764000085836108499190610ede565b6108539190610f67565b9050809250505092915050565b60008151905060006a636f6e736f6c652e6c6f679050602083016000808483855afa5050505050565b60008082905060008173ffffffffffffffffffffffffffffffffffffffff1663feaf968c6040518163ffffffff1660e01b815260040160a06040518083038186803b1580156108d757600080fd5b505afa1580156108eb573d6000803e3d6000fd5b505050506040513d601f19601f8201168201806040525081019061090f9190611010565b5050509150506402540be40081610926919061108b565b92505050919050565b8280548282559060005260206000209081019282156109a8579160200282015b828111156109a75782518260006101000a81548173ffffffffffffffffffffffffffffffffffffffff021916908373ffffffffffffffffffffffffffffffffffffffff1602179055509160200191906001019061094f565b5b5090506109b591906109b9565b5090565b5b808211156109d25760008160009055506001016109ba565b5090565b600080fd5b600073ffffffffffffffffffffffffffffffffffffffff82169050919050565b6000610a06826109db565b9050919050565b610a16816109fb565b8114610a2157600080fd5b50565b600081359050610a3381610a0d565b92915050565b600060208284031215610a4f57610a4e6109d6565b5b6000610a5d84828501610a24565b91505092915050565b6000819050919050565b610a7981610a66565b82525050565b6000602082019050610a946000830184610a70565b92915050565b610aa3816109fb565b82525050565b6000602082019050610abe6000830184610a9a565b92915050565b6000819050919050565b6000610ae9610ae4610adf846109db565b610ac4565b6109db565b9050919050565b6000610afb82610ace565b9050919050565b6000610b0d82610af0565b9050919050565b610b1d81610b02565b82525050565b6000602082019050610b386000830184610b14565b92915050565b610b4781610a66565b8114610b5257600080fd5b50565b600081359050610b6481610b3e565b92915050565b600060208284031215610b8057610b7f6109d6565b5b6000610b8e84828501610b55565b91505092915050565b600082825260208201905092915050565b7f596f75206e65656420746f207370656e64206d6f726520455448210000000000600082015250565b6000610bde601b83610b97565b9150610be982610ba8565b602082019050919050565b60006020820190508181036000830152610c0d81610bd1565b9050919050565b7f4e487b7100000000000000000000000000000000000000000000000000000000600052601160045260246000fd5b6000610c4e82610a66565b9150610c5983610a66565b9250827fffffffffffffffffffffffffffffffffffffffffffffffffffffffffffffffff03821115610c8e57610c8d610c14565b5b828201905092915050565b600081519050610ca881610b3e565b92915050565b600060208284031215610cc457610cc36109d6565b5b6000610cd284828501610c99565b91505092915050565b7f4e487b7100000000000000000000000000000000000000000000000000000000600052603260045260246000fd5b6000610d1582610a66565b91507fffffffffffffffffffffffffffffffffffffffffffffffffffffffffffffffff821415610d4857610d47610c14565b5b600182019050919050565b7f4e487b7100000000000000000000000000000000000000000000000000000000600052604160045260246000fd5b600081905092915050565b50565b6000610d9d600083610d82565b9150610da882610d8d565b600082019050919050565b6000610dbe82610d90565b9150819050919050565b7f43616c6c206661696c6564000000000000000000000000000000000000000000600082015250565b6000610dfe600b83610b97565b9150610e0982610dc8565b602082019050919050565b60006020820190508181036000830152610e2d81610df1565b9050919050565b600081519050919050565b60005b83811015610e5d578082015181840152602081019050610e42565b83811115610e6c576000848401525b50505050565b6000601f19601f8301169050919050565b6000610e8e82610e34565b610e988185610b97565b9350610ea8818560208601610e3f565b610eb181610e72565b840191505092915050565b60006020820190508181036000830152610ed68184610e83565b905092915050565b6000610ee982610a66565b9150610ef483610a66565b9250817fffffffffffffffffffffffffffffffffffffffffffffffffffffffffffffffff0483118215151615610f2d57610f2c610c14565b5b828202905092915050565b7f4e487b7100000000000000000000000000000000000000000000000000000000600052601260045260246000fd5b6000610f7282610a66565b9150610f7d83610a66565b925082610f8d57610f8c610f38565b5b828204905092915050565b600069ffffffffffffffffffff82169050919050565b610fb781610f98565b8114610fc257600080fd5b50565b600081519050610fd481610fae565b92915050565b6000819050919050565b610fed81610fda565b8114610ff857600080fd5b50565b60008151905061100a81610fe4565b92915050565b600080600080600060a0868803121561102c5761102b6109d6565b5b600061103a88828901610fc5565b955050602061104b88828901610ffb565b945050604061105c88828901610c99565b935050606061106d88828901610c99565b925050608061107e88828901610fc5565b9150509295509295909350565b600061109682610fda565b91506110a183610fda565b9250827f7fffffffffffffffffffffffffffffffffffffffffffffffffffffffffffffff04821160008413600084131616156110e0576110df610c14565b5b817f8000000000000000000000000000000000000000000000000000000000000000058312600084126000841316161561111d5761111c610c14565b5b827f8000000000000000000000000000000000000000000000000000000000000000058212600084136000841216161561115a57611159610c14565b5b827f7fffffffffffffffffffffffffffffffffffffffffffffffffffffffffffffff058212600084126000841216161561119757611196610c14565b5b82820290509291505056fea2646970667358221220d3392cc7638d8f4a33993fc31c92e91877d70559d64f49ca9b6be8171c08aa7464736f6c63430008080033",
  "devdoc": {
    "author": "me",
    "details": "This imnplements price feeds as our library",
    "kind": "dev",
    "methods": {
      "fund()": {
        "details": "This implements price feeds as our library"
      }
    },
    "title": "A contract for crowd funding",
    "version": 1
  },
  "userdoc": {
    "kind": "user",
    "methods": {
      "fund()": {
        "notice": "This function funds this contract"
      }
    },
    "notice": "This contract is to demo a sample funding contract",
    "version": 1
  },
  "storageLayout": {
    "storage": [
      {
        "astId": 60,
        "contract": "contracts/FundMe.sol:FundMe",
        "label": "s_addressToAmountFunded",
        "offset": 0,
        "slot": "0",
        "type": "t_mapping(t_address,t_uint256)"
      },
      {
        "astId": 63,
        "contract": "contracts/FundMe.sol:FundMe",
        "label": "s_funders",
        "offset": 0,
        "slot": "1",
        "type": "t_array(t_address)dyn_storage"
      },
      {
        "astId": 75,
        "contract": "contracts/FundMe.sol:FundMe",
        "label": "s_aggregatorPriceFeedAddress",
        "offset": 0,
        "slot": "2",
        "type": "t_contract(AggregatorV3Interface)45"
      }
    ],
    "types": {
      "t_address": {
        "encoding": "inplace",
        "label": "address",
        "numberOfBytes": "20"
      },
      "t_array(t_address)dyn_storage": {
        "base": "t_address",
        "encoding": "dynamic_array",
        "label": "address[]",
        "numberOfBytes": "32"
      },
      "t_contract(AggregatorV3Interface)45": {
        "encoding": "inplace",
        "label": "contract AggregatorV3Interface",
        "numberOfBytes": "20"
      },
      "t_mapping(t_address,t_uint256)": {
        "encoding": "mapping",
        "key": "t_address",
        "label": "mapping(address => uint256)",
        "numberOfBytes": "32",
        "value": "t_uint256"
      },
      "t_uint256": {
        "encoding": "inplace",
        "label": "uint256",
        "numberOfBytes": "32"
      }
    }
  }
}