{
  "address": "0xB4bB88Ba6018Ca3f9C93C23137F007F099bE18C5",
  "abi": [
    {
      "inputs": [
        {
          "internalType": "address",
          "name": "_priceFeedAddress",
          "type": "address"
        }
      ],
      "stateMutability": "nonpayable",
      "type": "constructor"
    },
    {
      "inputs": [],
      "name": "FundMe__NotOwner",
      "type": "error"
    },
    {
      "stateMutability": "payable",
      "type": "fallback"
    },
    {
      "inputs": [],
      "name": "MINIMUM_USD",
      "outputs": [
        {
          "internalType": "uint256",
          "name": "",
          "type": "uint256"
        }
      ],
      "stateMutability": "view",
      "type": "function"
    },
    {
      "inputs": [],
      "name": "fund",
      "outputs": [],
      "stateMutability": "payable",
      "type": "function"
    },
    {
      "inputs": [
        {
          "internalType": "address",
          "name": "_funderAddress",
          "type": "address"
        }
      ],
      "name": "getAddressToAmountFunded",
      "outputs": [
        {
          "internalType": "uint256",
          "name": "",
          "type": "uint256"
        }
      ],
      "stateMutability": "view",
      "type": "function"
    },
    {
      "inputs": [],
      "name": "getAggregatorPriceFeedAddress",
      "outputs": [
        {
          "internalType": "contract AggregatorV3Interface",
          "name": "",
          "type": "address"
        }
      ],
      "stateMutability": "view",
      "type": "function"
    },
    {
      "inputs": [
        {
          "internalType": "uint256",
          "name": "_index",
          "type": "uint256"
        }
      ],
      "name": "getFunder",
      "outputs": [
        {
          "internalType": "address",
          "name": "",
          "type": "address"
        }
      ],
      "stateMutability": "view",
      "type": "function"
    },
    {
      "inputs": [],
      "name": "getOwner",
      "outputs": [
        {
          "internalType": "address",
          "name": "",
          "type": "address"
        }
      ],
      "stateMutability": "view",
      "type": "function"
    },
    {
      "inputs": [],
      "name": "getVersion",
      "outputs": [
        {
          "internalType": "uint256",
          "name": "",
          "type": "uint256"
        }
      ],
      "stateMutability": "view",
      "type": "function"
    },
    {
      "inputs": [],
      "name": "get_minimum_fund",
      "outputs": [
        {
          "internalType": "uint256",
          "name": "",
          "type": "uint256"
        }
      ],
      "stateMutability": "pure",
      "type": "function"
    },
    {
      "inputs": [],
      "name": "someAction",
      "outputs": [
        {
          "internalType": "uint256",
          "name": "",
          "type": "uint256"
        }
      ],
      "stateMutability": "pure",
      "type": "function"
    },
    {
      "inputs": [],
      "name": "withdraw",
      "outputs": [],
      "stateMutability": "payable",
      "type": "function"
    },
    {
      "stateMutability": "payable",
      "type": "receive"
    }
  ],
  "transactionHash": "0xcdfdc95ffbb2544071cf6e986e32e987ef6fd74fe95fb39804e575ec358ba19f",
  "args": [
    "0x0715A7794a1dc8e42615F059dD6e406A6594651A"
  ],
  "numDeployments": 3,
  "solcInputHash": "9259c0ebd821e0dfb120d6abb31b104a",
  "bytecode": "0x60a06040523480156200001157600080fd5b506040516200156f3803806200156f833981810160405281019062000037919062000237565b3373ffffffffffffffffffffffffffffffffffffffff1660808173ffffffffffffffffffffffffffffffffffffffff1660601b8152505080600260006101000a81548173ffffffffffffffffffffffffffffffffffffffff021916908373ffffffffffffffffffffffffffffffffffffffff160217905550620000fa6040518060400160405280601781526020017f636f6e736f6c652e6c6f67282920646562756767696e670000000000000000008152506200010160201b620007cb1760201c565b5062000331565b620001a1816040516024016200011891906200030d565b6040516020818303038152906040527f41304fac000000000000000000000000000000000000000000000000000000007bffffffffffffffffffffffffffffffffffffffffffffffffffffffff19166020820180517bffffffffffffffffffffffffffffffffffffffffffffffffffffffff8381831617835250505050620001a460201b60201c565b50565b60008151905060006a636f6e736f6c652e6c6f679050602083016000808483855afa5050505050565b600080fd5b600073ffffffffffffffffffffffffffffffffffffffff82169050919050565b6000620001ff82620001d2565b9050919050565b6200021181620001f2565b81146200021d57600080fd5b50565b600081519050620002318162000206565b92915050565b60006020828403121562000250576200024f620001cd565b5b6000620002608482850162000220565b91505092915050565b600081519050919050565b600082825260208201905092915050565b60005b83811015620002a557808201518184015260208101905062000288565b83811115620002b5576000848401525b50505050565b6000601f19601f8301169050919050565b6000620002d98262000269565b620002e5818562000274565b9350620002f781856020860162000285565b6200030281620002bb565b840191505092915050565b60006020820190508181036000830152620003298184620002cc565b905092915050565b60805160601c6112186200035760003960008181610467015261072b01526112186000f3fe6080604052600436106100955760003560e01c8063893d20e811610059578063893d20e8146101765780639e02dcfc146101a1578063b60d4288146101cc578063d52a5f65146101d6578063d7b4750c14610201576100a4565b80630343fb25146100ae5780630d8e6e2c146100eb5780633ccfd60b146101165780636b69a59214610120578063825950651461014b576100a4565b366100a4576100a261023e565b005b6100ac61023e565b005b3480156100ba57600080fd5b506100d560048036038101906100d09190610a79565b610376565b6040516100e29190610abf565b60405180910390f35b3480156100f757600080fd5b506101006103be565b60405161010d9190610abf565b60405180910390f35b61011e610465565b005b34801561012c57600080fd5b50610135610709565b6040516101429190610abf565b60405180910390f35b34801561015757600080fd5b50610160610716565b60405161016d9190610abf565b60405180910390f35b34801561018257600080fd5b5061018b610727565b6040516101989190610ae9565b60405180910390f35b3480156101ad57600080fd5b506101b661074f565b6040516101c39190610b63565b60405180910390f35b6101d461023e565b005b3480156101e257600080fd5b506101eb610779565b6040516101f89190610abf565b60405180910390f35b34801561020d57600080fd5b5061022860048036038101906102239190610baa565b610783565b6040516102359190610ae9565b60405180910390f35b610246610716565b61027b600260009054906101000a900473ffffffffffffffffffffffffffffffffffffffff163461086490919063ffffffff16565b10156102bc576040517f08c379a00000000000000000000000000000000000000000000000000000000081526004016102b390610c34565b60405180910390fd5b346000803373ffffffffffffffffffffffffffffffffffffffff1673ffffffffffffffffffffffffffffffffffffffff168152602001908152602001600020600082825461030a9190610c83565b925050819055506001339080600181540180825580915050600190039060005260206000200160009091909190916101000a81548173ffffffffffffffffffffffffffffffffffffffff021916908373ffffffffffffffffffffffffffffffffffffffff160217905550565b60008060008373ffffffffffffffffffffffffffffffffffffffff1673ffffffffffffffffffffffffffffffffffffffff168152602001908152602001600020549050919050565b6000600260009054906101000a900473ffffffffffffffffffffffffffffffffffffffff1673ffffffffffffffffffffffffffffffffffffffff166354fd4d506040518163ffffffff1660e01b815260040160206040518083038186803b15801561042857600080fd5b505afa15801561043c573d6000803e3d6000fd5b505050506040513d601f19601f820116820180604052508101906104609190610cee565b905090565b7f000000000000000000000000000000000000000000000000000000000000000073ffffffffffffffffffffffffffffffffffffffff163373ffffffffffffffffffffffffffffffffffffffff16146104ea576040517f579610db00000000000000000000000000000000000000000000000000000000815260040160405180910390fd5b6000600180548060200260200160405190810160405280929190818152602001828054801561056e57602002820191906000526020600020905b8160009054906101000a900473ffffffffffffffffffffffffffffffffffffffff1673ffffffffffffffffffffffffffffffffffffffff1681526020019060010190808311610524575b5050505050905060005b81518110156105f857600082828151811061059657610595610d1b565b5b6020026020010151905060008060008373ffffffffffffffffffffffffffffffffffffffff1673ffffffffffffffffffffffffffffffffffffffff168152602001908152602001600020819055505080806105f090610d4a565b915050610578565b50600067ffffffffffffffff81111561061457610613610d93565b5b6040519080825280602002602001820160405280156106425781602001602082028036833780820191505090505b506001908051906020019061065892919061096f565b5060003373ffffffffffffffffffffffffffffffffffffffff164760405161067f90610df3565b60006040518083038185875af1925050503d80600081146106bc576040519150601f19603f3d011682016040523d82523d6000602084013e6106c1565b606091505b5050905080610705576040517f08c379a00000000000000000000000000000000000000000000000000000000081526004016106fc90610e54565b60405180910390fd5b5050565b6802b5e3af16b188000081565b60006802b5e3af16b1880000905090565b60007f0000000000000000000000000000000000000000000000000000000000000000905090565b6000600260009054906101000a900473ffffffffffffffffffffffffffffffffffffffff16905090565b60006101bc905090565b60006001828154811061079957610798610d1b565b5b9060005260206000200160009054906101000a900473ffffffffffffffffffffffffffffffffffffffff169050919050565b610861816040516024016107df9190610efc565b6040516020818303038152906040527f41304fac000000000000000000000000000000000000000000000000000000007bffffffffffffffffffffffffffffffffffffffffffffffffffffffff19166020820180517bffffffffffffffffffffffffffffffffffffffffffffffffffffffff83818316178352505050506108a0565b50565b600080610870836108c9565b90506000670de0b6b3a764000085836108899190610f1e565b6108939190610fa7565b9050809250505092915050565b60008151905060006a636f6e736f6c652e6c6f679050602083016000808483855afa5050505050565b60008082905060008173ffffffffffffffffffffffffffffffffffffffff1663feaf968c6040518163ffffffff1660e01b815260040160a06040518083038186803b15801561091757600080fd5b505afa15801561092b573d6000803e3d6000fd5b505050506040513d601f19601f8201168201806040525081019061094f9190611050565b5050509150506402540be4008161096691906110cb565b92505050919050565b8280548282559060005260206000209081019282156109e8579160200282015b828111156109e75782518260006101000a81548173ffffffffffffffffffffffffffffffffffffffff021916908373ffffffffffffffffffffffffffffffffffffffff1602179055509160200191906001019061098f565b5b5090506109f591906109f9565b5090565b5b80821115610a125760008160009055506001016109fa565b5090565b600080fd5b600073ffffffffffffffffffffffffffffffffffffffff82169050919050565b6000610a4682610a1b565b9050919050565b610a5681610a3b565b8114610a6157600080fd5b50565b600081359050610a7381610a4d565b92915050565b600060208284031215610a8f57610a8e610a16565b5b6000610a9d84828501610a64565b91505092915050565b6000819050919050565b610ab981610aa6565b82525050565b6000602082019050610ad46000830184610ab0565b92915050565b610ae381610a3b565b82525050565b6000602082019050610afe6000830184610ada565b92915050565b6000819050919050565b6000610b29610b24610b1f84610a1b565b610b04565b610a1b565b9050919050565b6000610b3b82610b0e565b9050919050565b6000610b4d82610b30565b9050919050565b610b5d81610b42565b82525050565b6000602082019050610b786000830184610b54565b92915050565b610b8781610aa6565b8114610b9257600080fd5b50565b600081359050610ba481610b7e565b92915050565b600060208284031215610bc057610bbf610a16565b5b6000610bce84828501610b95565b91505092915050565b600082825260208201905092915050565b7f596f75206e65656420746f207370656e64206d6f726520455448210000000000600082015250565b6000610c1e601b83610bd7565b9150610c2982610be8565b602082019050919050565b60006020820190508181036000830152610c4d81610c11565b9050919050565b7f4e487b7100000000000000000000000000000000000000000000000000000000600052601160045260246000fd5b6000610c8e82610aa6565b9150610c9983610aa6565b9250827fffffffffffffffffffffffffffffffffffffffffffffffffffffffffffffffff03821115610cce57610ccd610c54565b5b828201905092915050565b600081519050610ce881610b7e565b92915050565b600060208284031215610d0457610d03610a16565b5b6000610d1284828501610cd9565b91505092915050565b7f4e487b7100000000000000000000000000000000000000000000000000000000600052603260045260246000fd5b6000610d5582610aa6565b91507fffffffffffffffffffffffffffffffffffffffffffffffffffffffffffffffff821415610d8857610d87610c54565b5b600182019050919050565b7f4e487b7100000000000000000000000000000000000000000000000000000000600052604160045260246000fd5b600081905092915050565b50565b6000610ddd600083610dc2565b9150610de882610dcd565b600082019050919050565b6000610dfe82610dd0565b9150819050919050565b7f43616c6c206661696c6564000000000000000000000000000000000000000000600082015250565b6000610e3e600b83610bd7565b9150610e4982610e08565b602082019050919050565b60006020820190508181036000830152610e6d81610e31565b9050919050565b600081519050919050565b60005b83811015610e9d578082015181840152602081019050610e82565b83811115610eac576000848401525b50505050565b6000601f19601f8301169050919050565b6000610ece82610e74565b610ed88185610bd7565b9350610ee8818560208601610e7f565b610ef181610eb2565b840191505092915050565b60006020820190508181036000830152610f168184610ec3565b905092915050565b6000610f2982610aa6565b9150610f3483610aa6565b9250817fffffffffffffffffffffffffffffffffffffffffffffffffffffffffffffffff0483118215151615610f6d57610f6c610c54565b5b828202905092915050565b7f4e487b7100000000000000000000000000000000000000000000000000000000600052601260045260246000fd5b6000610fb282610aa6565b9150610fbd83610aa6565b925082610fcd57610fcc610f78565b5b828204905092915050565b600069ffffffffffffffffffff82169050919050565b610ff781610fd8565b811461100257600080fd5b50565b60008151905061101481610fee565b92915050565b6000819050919050565b61102d8161101a565b811461103857600080fd5b50565b60008151905061104a81611024565b92915050565b600080600080600060a0868803121561106c5761106b610a16565b5b600061107a88828901611005565b955050602061108b8882890161103b565b945050604061109c88828901610cd9565b93505060606110ad88828901610cd9565b92505060806110be88828901611005565b9150509295509295909350565b60006110d68261101a565b91506110e18361101a565b9250827f7fffffffffffffffffffffffffffffffffffffffffffffffffffffffffffffff04821160008413600084131616156111205761111f610c54565b5b817f8000000000000000000000000000000000000000000000000000000000000000058312600084126000841316161561115d5761115c610c54565b5b827f8000000000000000000000000000000000000000000000000000000000000000058212600084136000841216161561119a57611199610c54565b5b827f7fffffffffffffffffffffffffffffffffffffffffffffffffffffffffffffff05821260008412600084121616156111d7576111d6610c54565b5b82820290509291505056fea2646970667358221220cc61c36ae5a24ed57d33eb242ba1578a2c0cb609d09a873f68a2ecd23bb7f9bb64736f6c63430008080033",
  "devdoc": {
    "author": "me",
    "details": "This imnplements price feeds as our library",
    "kind": "dev",
    "methods": {
      "fund()": {
        "details": "This implements price feeds as our library"
      }
    },
    "title": "A contract for crowd funding",
    "version": 1
  },
  "userdoc": {
    "kind": "user",
    "methods": {
      "fund()": {
        "notice": "This function funds this contract"
      }
    },
    "notice": "This contract is to demo a sample funding contract",
    "version": 1
  },
  "storageLayout": {
    "storage": [
      {
        "astId": 60,
        "contract": "contracts/FundMe.sol:FundMe",
        "label": "s_addressToAmountFunded",
        "offset": 0,
        "slot": "0",
        "type": "t_mapping(t_address,t_uint256)"
      },
      {
        "astId": 63,
        "contract": "contracts/FundMe.sol:FundMe",
        "label": "s_funders",
        "offset": 0,
        "slot": "1",
        "type": "t_array(t_address)dyn_storage"
      },
      {
        "astId": 75,
        "contract": "contracts/FundMe.sol:FundMe",
        "label": "s_aggregatorPriceFeedAddress",
        "offset": 0,
        "slot": "2",
        "type": "t_contract(AggregatorV3Interface)45"
      }
    ],
    "types": {
      "t_address": {
        "encoding": "inplace",
        "label": "address",
        "numberOfBytes": "20"
      },
      "t_array(t_address)dyn_storage": {
        "base": "t_address",
        "encoding": "dynamic_array",
        "label": "address[]",
        "numberOfBytes": "32"
      },
      "t_contract(AggregatorV3Interface)45": {
        "encoding": "inplace",
        "label": "contract AggregatorV3Interface",
        "numberOfBytes": "20"
      },
      "t_mapping(t_address,t_uint256)": {
        "encoding": "mapping",
        "key": "t_address",
        "label": "mapping(address => uint256)",
        "numberOfBytes": "32",
        "value": "t_uint256"
      },
      "t_uint256": {
        "encoding": "inplace",
        "label": "uint256",
        "numberOfBytes": "32"
      }
    }
  }
}